:04822900410004F01C
:0880DD00E004F0E090E800F07F
:1080E50090000012814900000000E47F947E11FD9C
:1080F500FC900000E0F8A3E0F9A3E0FAA3E0FBD3CD
:1081050012812C5021900000E0FCA3E0FDA3E0FECD
:10811500A3E02401FFE43EFEE43DFDE43CFC9000C9
:078125000012813D80C4221D
:10821300900004E0540FF090E800F044F090000464
:06822300F090E800F022DB
:1081C700900005E024F9602E24FC601624FE703B25
:1081D700900004E0C394F374809480502B1280DDE8
:1081E70080EE900004E0C394F674809480500512EA
:1081F70080DD80EE8012900004E0C394F9748094CF
:0C8207008050051280DD80EE12821322F0
:10808C00900005E024F5601B24FD602D04704190E8
:10809C000004E0D394F3748094804031E014128097
:1080AC00DF80EC900004E0D394F674809480400759
:1080BC00E0141280DF80EC8014900004E0D394F084
:1080CC00748094804007E0141280DF80EC128213DD
:0180DC002281
:10817A0090E8037482F090E80074F0F090000A74BA
:10818A000EF090E801E0900005F0540FF0640F60E3
:10819A002290000AE0FF900005E0FE6F6015EEC332
:1081AA009F50051281C7800312808C900005E090D1
:0D81BA00000AF090E801E0900005F080C59B
:030000000280007B
:0C800000787FE4F6D8FD75810702804708
:10812C00EB9FF5F0EA9E42F0E99D42F0E89C45F0A9
:01813C002220
:0C813D00ECF0A3EDF0A3EEF0A3EFF022B5
:10814900A8828583F0D083D0821281601281601267
:108159008160128160E473E493A3C583C5F0C5838C
:10816900C8C582C8F0A3C583C5F0C583C8C582C880
:0181790022E3
:10800C0002817AE493A3F8E493A34003F68001F28F
:10801C0008DFF48029E493A3F85407240CC8C33375
:10802C00C4540F4420C8834004F456800146F6DF44
:10803C00E4800B0102040810204080908229E47E29
:10804C00019360BCA3FF543F30E509541FFEE49339
:10805C00A360010ECF54C025E060A840B8E493A300
:10806C00FAE493A3F8E493A3C8C582C8CAC583CA2B
:10807C00F0A3C8C582C8CAC583CADFE9DEE780BEE3
:01822D000050
:00000001FF
